:100000000C9462000C948A000C948A000C948A0070
:100010000C948A000C948A000C948A000C948A0038
:100020000C948A000C948A000C948A000C948A0028
:100030000C948A000C948A000C948A000C948A0018
:100040000C941E050C948A000C948A000C948A006F
:100050000C948A000C948A000C948A000C948A00F8
:100060000C9460030C948A00000000002400270018
:100070002A0000000000250028002B0000000000DE
:1000800023002600290004040404040404040202DA
:100090000202020203030303030301020408102007
:1000A0004080010204081020010204081020000012
:1000B0000007000201000003040600000000000029
:1000C0000000A00211241FBECFEFD8E0DEBFCDBFDD
:1000D00011E0A0E0B1E0E4E6FEE002C005900D9280
:1000E000A031B107D9F711E0A0E1B1E001C01D9244
:1000F000A13EB107E1F710E0C4ECD0E004C02297C4
:10010000FE010E942C07C23CD107C9F70E940F05CF
:100110000C9430070C940000FF920F931F93862FCE
:10012000042FF22E0E94FA06182F110F802F0E9422
:10013000FA06180F110F8F2D0E94FA06885F810FA3
:100140001F910F91FF9008950F931F9368EE73E036
:1001500080E090E00E949A052FE088E190E00FB6E1
:10016000F894A895809360000FBE2093600083E010
:1001700061E00E945B0685E061E00E945B0682E030
:1001800062E00E945B0684E062E00E945B0686E01B
:1001900062E00E945B0687E062E00E945B0689E005
:1001A00062E00E945B0688E062E00E945B0664EF0A
:1001B00071E080E090E00E949A0582E090E064E0C7
:1001C00070E046E050E027E030E00E948C00682FAD
:1001D0000EE511E0C8010E942303C8016EE271E040
:1001E0000E949602C80165E271E00E949B02A895F8
:1001F00078941F910F910895FF920F931F93CF93BF
:10020000DF93F82E00E010E0C0E0D0E08F2D0E94D8
:10021000FA06892B11F40F5F1F4F61E070E080E058
:1002200090E00E949A052196C330D10579F720E02D
:1002300030E00330110511F021E030E0C901DF9119
:10024000CF911F910F91FF9008958EE591E060E1AD
:1002500071E045E050E00E94B7020895CF92DF922E
:10026000EF92FF920F931F9323E5C22EDD24D394C8
:1002700092E0E92E83E0F82E07E019E434C08EE521
:1002800091E00E943E02893659F4D0921001E0922A
:100290001101F0921201009313011093140123C075
:1002A000833789F489E00E94FA068093100188E080
:1002B0000E94FA068093110110921201109213010C
:1002C000C092140110C08F3621F0833611F08437AC
:1002D00051F410921001109211011092120110921B
:1002E0001301809314018EE591E00E943502892B61
:1002F00031F61F910F91FF90EF90DF90CF9008950E
:10030000682F83E00E94C70661E070E080E090E023
:100310000E949A0585E060E070E00E94FB05089568
:100320001F93182F83E00E94C70685E0612F70E0BD
:100330000E94FB051F910895EF92FF920F931F9368
:100340000E9466057B018C0184EB60E00E949001B5
:1003500012C088E090E00E94FC00892B59F461E013
:1003600070E080E090E00E949A0581E00E948001A8
:1003700081E010C0A8950E9466056E197F09800B68
:10038000910B605177428040904018F381E00E94C9
:10039000800182E01F910F91FF90EF900895EF92FE
:1003A000FF920F931F930E9466057B018C0184EBE3
:1003B00061E00E94900112C089E090E00E94FC0080
:1003C000892B59F461E070E080E090E00E949A058A
:1003D00080E00E94800181E010C0A8950E9466051F
:1003E0006E197F09800B910B6051774280409040DD
:1003F00018F380E00E94800182E01F910F91FF902E
:10040000EF90089589E228E130E00FB6F894A895BE
:10041000209360000FBE80936000809114018F369E
:1004200039F40E94CF01809310018FE4809314016E
:1004300080911401833639F40E949C01809310014D
:1004400083E48093140180911401843761F40E9445
:10045000CF0180931001A8950E949C018093110107
:1004600084E580931401A89508952091360130E029
:1004700080913501281B3109C9010895409135014A
:1004800080913601481718F02FEF3FEF0AC0E42F94
:10049000F0E0EB5EFE4F8081282F30E04F5F40930D
:1004A0003501C9010895E091350180913601E817C1
:1004B00018F0EFEFFFEF06C0F0E0EB5EFE4F80813B
:1004C000E82FF0E0CF0108950895AC0120915C0180
:1004D00030915D0121153105E1F090913501809158
:1004E00036019817B0F090E008C0FA01EA0FFB1F40
:1004F0008081AB5EBE4F8C939F5FA92FB0E0A617A3
:10050000B7079CF31092350160933601CB01F901D6
:1005100009950895E0915A01F0915B01309729F017
:1005200010925701109258010995089570935D013A
:1005300060935C01089570935B0160935A01089584
:10054000109261011092600188EE93E0A0E0B0E0AB
:100550008093620190936301A0936401B09365015D
:1005600084E091E090935F0180935E010895CF92C3
:10057000DF92EF92FF920F931F93CF93DF937C0153
:100580006B018A01809159018823A1F0C0E0D0E07D
:100590000DC0D701ED91FC91D601AC0FBD1F0190AC
:1005A000F081E02DC7016C9109952196C017D10704
:1005B00080F304C0CB01642F0E943B03C801DF918C
:1005C000CF911F910F91FF90EF90DF90CF90089502
:1005D000DF93CF930F92CDB7DEB7FC016983809193
:1005E00059018823C9F080915801803238F081E0A8
:1005F00090E09383828320E030E015C08091570122
:10060000E82FF0E0E95CFE4F998190838F5F809343
:1006100057018093580105C0CE01019661E00E9408
:100620003B0321E030E0C9010F90CF91DF910895A5
:100630001092350110923601109257011092580114
:100640000E94F10408950F931F938C01862F0E943E
:1006500037038AE892E00E945B0385E692E00E94FD
:100660005603C8010E9418031F910F910895880F27
:100670008093BA000895482F613210F081E0089508
:1006800080916A01843011F082E008956093B50191
:10069000A4E9B1E0842F9C01F90102C081918D93FE
:1006A0008E2F841B8617D0F380E0089590937101FC
:1006B00080937001089590936F0180936E01089567
:1006C0001F920F920FB60F9211242F933F934F93C7
:1006D0005F936F937F938F939F93AF93BF93EF93AA
:1006E000FF938091B90090E0887F907080369105EB
:1006F00009F4F2C081369105CCF58832910509F4F0
:100700007BC089329105B4F48031910509F46FC042
:10071000813191053CF4009709F447C1089709F02D
:100720004FC165C08831910509F466C0809709F012
:1007300047C182C08034910509F4A4C08134910579
:1007400044F48033910509F482C0C89709F038C198
:1007500089C08035910509F489C08835910509F46F
:1007600096C08834910509F02BC1AEC08839910537
:1007700009F413C189399105ECF48837910509F41E
:10078000ABC0893791054CF48836910509F4A4C0B3
:100790008037910509F014C19FC08838910509F48C
:1007A000FCC08039910509F49DC08038910509F09D
:1007B00007C198C0803B910509F4C6C0813B9105F3
:1007C0004CF4803A910509F49FC0883A910509F0EC
:1007D000F7C0BAC0803C910509F4E3C0883C91059C
:1007E00009F4DFC0883B910509F0EAC0C2C08091DE
:1007F0006B018093BB00CFC09091920180919301D7
:10080000981768F490919201E92FF0E0EE58FE4FAE
:1008100080818093BB009F5F90939201BCC08091C8
:100820006C01882309F44BC085ED8093BC00809156
:10083000BC0084FDFCCFC2C080E28093D70185ED6F
:100840008093BC008091BC0084FDFCCFB7C080E3E6
:100850008093D70185ED8093BC008091BC0084FD1E
:10086000FCCFACC088E38093D7019BC080919201FC
:100870009091BB00E82FF0E0EE58FE4F90838F5F21
:1008800080939201909192018091930182C0809116
:1008900092019091BB00E82FF0E0EE58FE4F90835C
:1008A0008F5F8093920180916C01882341F085EDE8
:1008B0008093BC008091BC0084FDFCCF7FC081E0B0
:1008C00080936D0184EA6EC085ED8093BC008091B9
:1008D000BC0084FDFCCF72C083E080936A0110925B
:1008E000D60159C08091D601803208F056C080915F
:1008F000D6019091BB00E82FF0E0EA54FE4F9083C0
:100900008F5F8093D60147C08091D601803230F44A
:10091000E091D601F0E0EA54FE4F108285ED80931D
:10092000BC008091BC0084FDFCCF10926A016091F4
:10093000D601E0917001F091710186EB91E070E0D9
:1009400009951092D6012DC084E080936A0110921F
:10095000B4011092B501E0916E01F0916F0109951B
:100960008091B501882329F481E08093B50110922C
:1009700094019091B401E92FF0E0EC56FE4F808194
:100980008093BB009F5F9093B4019091B4018091DC
:10099000B501981710F485EC01C085E88093BC0080
:1009A0000FC085EC8093BC0009C01092D70185ED83
:1009B0008093BC008091BC0084FDFCCF10926A0142
:1009C000FF91EF91BF91AF919F918F917F916F9127
:1009D0005F914F913F912F910F900FBE0F901F90FD
:1009E000189510926A0181E080936C0110926D015C
:1009F00082E161E00E94C70683E161E00E94C706D0
:100A0000E9EBF0E080818E7F808380818D7F808321
:100A100088E48093B80085E48093BC000895CF9368
:100A2000DF930E94C0050E94A400C0E0D0E00E94B5
:100A300002022097E1F30E940000F9CF1F920F926B
:100A40000FB60F9211242F933F938F939F93AF93E1
:100A5000BF938091DC019091DD01A091DE01B09106
:100A6000DF013091E0010196A11DB11D232F2D5F03
:100A70002D3720F02D570196A11DB11D2093E001C7
:100A80008093DC019093DD01A093DE01B093DF0140
:100A90008091D8019091D901A091DA01B091DB0148
:100AA0000196A11DB11D8093D8019093D901A09307
:100AB000DA01B093DB01BF91AF919F918F913F918C
:100AC0002F910F900FBE0F901F9018958FB7F8942D
:100AD0002091DC013091DD014091DE015091DF0178
:100AE0008FBFB901CA0108959FB7F8942091D8012A
:100AF0003091D9014091DA015091DB0186B5A89B74
:100B000006C08F3F21F02F5F3F4F4F4F5F4F9FBF7A
:100B1000542F432F322F2227280F311D411D511DE5
:100B200082E0220F331F441F551F8A95D1F7B90168
:100B3000CA010895EF92FF920F931F93CF93DF9313
:100B40007B018C010E947405EB010EC00E947405AC
:100B50006C1B7D0B685E7340C8F30894E108F108D4
:100B600001091109C851DC4FE114F1040105110517
:100B700069F7DF91CF911F910F91FF90EF9008954A
:100B8000789484B5826084BD84B5816084BD85B568
:100B9000826085BD85B5816085BDEEE6F0E080812F
:100BA00081608083E1E8F0E0108280818260808350
:100BB000808181608083E0E8F0E0808181608083D3
:100BC000E1EBF0E0808184608083E0EBF0E0808105
:100BD00081608083EAE7F0E08081846080838081A7
:100BE000826080838081816080838081806880834F
:100BF0001092C10008951F93CF93DF93182FEB013C
:100C000061E00E945B06209709F44AC0CF3FD105FE
:100C100009F449C0E12FF0E0E255FF4F84918330A1
:100C2000C1F0843028F4813051F08230B1F50CC02D
:100C3000863019F1873049F1843079F514C084B5D4
:100C4000806884BDC7BD33C084B5806284BDC8BD23
:100C50002EC080918000806880938000D0938900AE
:100C6000C093880024C080918000806280938000BF
:100C7000D0938B00C0938A001AC08091B000806826
:100C80008093B000C093B30012C08091B000806226
:100C90008093B000C093B4000AC0C038D1051CF4E2
:100CA000812F60E002C0812F61E00E94C706DF91C2
:100CB000CF911F910895CF93DF93482F50E0CA0141
:100CC00086569F4FFC0134914A575F4FFA01849139
:100CD000882369F190E0880F991FFC01E859FF4FC4
:100CE000A591B491FC01EE58FF4FC591D4916623B4
:100CF00051F42FB7F8948C91932F909589238C936E
:100D0000888189230BC0623061F42FB7F8948C91ED
:100D1000932F909589238C938881832B88832FBF71
:100D200006C09FB7F8948C91832B8C939FBFDF9163
:100D3000CF910895833071F0843028F48130A1F090
:100D4000823021F514C08630B1F08730D1F0843084
:100D5000E9F404C0809180008F7703C08091800007
:100D60008F7D80938000089584B58F7702C084B50D
:100D70008F7D84BD08958091B0008F778093B000FF
:100D800008958091B0008F7D8093B0000895FF9208
:100D90000F931F93F62E482F50E0CA0182559F4FA4
:100DA000FC012491CA0186569F4FFC0114914A57B9
:100DB0005F4FFA0104910023C9F0222319F0822F1A
:100DC0000E949A06E02FF0E0EE0FFF1FEE58FF4F53
:100DD000A591B4919FB7F894FF2021F48C911095C0
:100DE000812302C08C91812B8C939FBF1F910F9107
:100DF000FF9008950F931F93482F50E0CA0182552A
:100E00009F4FFC012491CA0186569F4FFC0104911B
:100E10004A575F4FFA011491112319F420E030E092
:100E200015C0222319F0822F0E949A06812F90E08C
:100E3000880F991F84589F4FFC01A591B4918C9104
:100E400020E030E0802311F021E030E0C9011F9163
:100E50000F910895EE0FFF1F0590F491E02D099476
:040E6000F894FFCF34
:100E640000000000E802B70235023E0253026402A9
:00000001FF
