:100000000C9463000C948B000C948B000C948B006C
:100010000C948B000C948B000C948B000C948B0034
:100020000C948B000C948B000C948B000C948B0024
:100030000C948B000C948B000C948B000C948B0014
:100040000C942C080C948B000C940A050C94580505
:100050000C948B000C948B000C948B000C948B00F4
:100060000C945A030C948B0000000000240027001D
:100070002A0000000000250028002B0000000000DE
:1000800023002600290004040404040404040202DA
:100090000202020203030303030301020408102007
:1000A0004080010204081020010204081020000012
:1000B0000007000201000003040600000000000029
:1000C00000009A02C40611241FBECFEFD8E0DEBFA5
:1000D000CDBF11E0A0E0B1E0E2E0F5E102C00590A3
:1000E0000D92A032B107D9F712E0A0E2B1E001C051
:1000F0001D92AB39B107E1F710E0C6ECD0E004C0C7
:100100002297FE010E947B0AC23CD107C9F70E94D8
:100110001A070C947F0A0C940000EF92FF920F9341
:100120001F93062FF42EE22E0E94080A182F110F9B
:10013000802F0E94080A180F110F8F2D0E94080AA5
:10014000180F110F8E2D0E94080A885F810F1F91D2
:100150000F91FF90EF9008950F931F9380E792E027
:1001600040E855E260E070E00E94930568EE73E0BD
:1001700080E090E00E94A8082FE088E190E00FB6B0
:10018000F894A895809360000FBE2093600083E0F0
:1001900061E00E94690985E061E00E94690982E0EE
:1001A00062E00E94690984E062E00E94690986E0D9
:1001B00062E00E94690987E062E00E94690989E0C3
:1001C00062E00E94690988E062E00E94690964EFC8
:1001D00071E080E090E00E94A80882E090E064E096
:1001E00070E046E050E027E030E00E948D00682F8C
:1001F0000EE611E0C8010E941D03C80165E171E02F
:100200000E949002C8016CE071E00E949502A895DE
:1002100078941F910F9108958EE691E060E271E06D
:1002200045E050E00E94B1020895CF92DF92EF9234
:10023000FF920F931F9323E5C22EDD24D39492E007
:10024000E92E83E0F82E05E019E434C08EE691E053
:100250000E943802893659F4D0922001E09221019F
:10026000F0922201009323011093240123C08337CD
:1002700089F489E00E94080A8093200188E00E94A6
:10028000080A809321011092220110922301C0924A
:10029000240110C08F3621F0833611F0843751F4D9
:1002A000109220011092210110922201109223013C
:1002B000809324018EE691E00E942F02892B31F673
:1002C0001F910F91FF90EF90DF90CF900895682FCE
:1002D00083E00E94D50961E070E080E090E00E9438
:1002E000A80885E060E070E00E94090908951F9366
:1002F000182F83E00E94D50985E0612F70E00E94ED
:1003000009091F910895EF92FF920F931F930E9486
:1003100074087B018C0180E860E00E94770111C0C5
:1003200088E00E94080A892B59F461E070E080E0BF
:1003300090E00E94A80881E00E94670181E010C05F
:10034000A8950E9474086E197F09800B910B60516B
:1003500077428040904020F381E00E94670182E074
:100360001F910F91FF90EF900895EF92FF920F93DE
:100370001F930E9474087B018C0180E861E00E9459
:10038000770111C089E00E94080A892B59F461E0C5
:1003900070E080E090E00E94A80880E00E94670181
:1003A00081E010C0A8950E9474086E197F09800B27
:1003B000910B605177428040904020F380E00E9492
:1003C000670182E01F910F91FF90EF900895CF9306
:1003D000DF9329E288E190E00FB6F894A895809326
:1003E00060000FBE20936000C0E2D1E080E792E0A1
:1003F00069914AE050E00E941A0881E0C532D807AE
:10040000A9F780E792E060E20E94730780912401DF
:100410008F3639F40E94B501809320018FE48093D8
:10042000240180912401833639F40E948301809352
:10043000200183E48093240180912401843759F4BE
:100440000E94B501809320010E94830180932101C5
:1004500084E580932401A895DF91CF9108952091A0
:10046000460130E080914501281B3109C9010895FA
:100470004091450180914601481718F02FEF3FEF5A
:100480000AC0E42FF0E0EB5DFE4F8081282F30E0C2
:100490004F5F40934501C9010895E0914501809166
:1004A0004601E81718F0EFEFFFEF06C0F0E0EB5D54
:1004B000FE4F8081E82FF0E0CF0108950895AC0150
:1004C00020916C0130916D0121153105E1F0909181
:1004D0004501809146019817B0F090E008C0FA01FC
:1004E000EA0FFB1F8081AB5DBE4F8C939F5FA92FEE
:1004F000B0E0A617B7079CF3109245016093460140
:10050000CB01F90109950895E0916A01F0916B0121
:10051000309729F0109267011092680109950895AB
:1005200070936D0160936C01089570936B016093FB
:100530006A010895109271011092700188EE93E0A3
:10054000A0E0B0E08093720190937301A0937401D6
:10055000B093750184E091E090936F0180936E01F8
:100560000895CF92DF92EF92FF920F931F93CF9354
:10057000DF937C016B018A01809169018823A1F0DE
:10058000C0E0D0E00DC0D701ED91FC91D601AC0FD9
:10059000BD1F0190F081E02DC7016C910995219656
:1005A000C017D10780F304C0CB01642F0E9435032C
:1005B000C801DF91CF911F910F91FF90EF90DF90D5
:1005C000CF900895DF93CF930F92CDB7DEB7FC01A4
:1005D0006983809169018823C9F080916801803224
:1005E00038F081E090E09383828320E030E015C012
:1005F00080916701E82FF0E0E95BFE4F99819083DD
:100600008F5F809367018093680105C0CE010196DA
:1006100061E00E94350321E030E0C9010F90CF91E5
:10062000DF910895109245011092460110926701E2
:10063000109268010E94EB0408950F931F938C01A0
:10064000862F0E94310384E892E00E9455038FE5D3
:1006500092E00E945003C8010E9412031F910F9163
:100660000895880F8093BA000895482F613210F0E2
:1006700081E0089580917A01843011F082E008953C
:100680006093C501A4EAB1E0842F9C01F90102C086
:1006900081918D938E2F841B8617D0F380E008956F
:1006A0009093810180938001089590937F018093BE
:1006B0007E0108951F920F920FB60F9211242F936F
:1006C0003F934F935F936F937F938F939F93AF93DA
:1006D000BF93EF93FF938091B90090E0887F907073
:1006E0008036910509F4F2C081369105CCF5883247
:1006F000910509F47BC089329105B4F480319105EC
:1007000009F46FC0813191053CF4009709F447C1A9
:10071000089709F04FC165C08831910509F466C09A
:10072000809709F047C182C08034910509F4A4C0C4
:100730008134910544F48033910509F482C0C8974F
:1007400009F038C189C08035910509F489C0883520
:10075000910509F496C08834910509F02BC1AEC00B
:100760008839910509F413C189399105ECF488376A
:10077000910509F4ABC0893791054CF48836910591
:1007800009F4A4C08037910509F014C19FC08838CE
:10079000910509F4FCC08039910509F49DC08038A9
:1007A000910509F007C198C0803B910509F4C6C0C6
:1007B000813B91054CF4803A910509F49FC0883A39
:1007C000910509F0F7C0BAC0803C910509F4E3C077
:1007D000883C910509F4DFC0883B910509F0EAC027
:1007E000C2C080917B018093BB00CFC09091A201D9
:1007F0008091A301981768F49091A201E92FF0E08D
:10080000EE57FE4F80818093BB009F5F9093A201C3
:10081000BCC080917C01882309F44BC085ED809396
:10082000BC008091BC0084FDFCCFC2C080E28093FC
:10083000E70185ED8093BC008091BC0084FDFCCF76
:10084000B7C080E38093E70185ED8093BC00809181
:10085000BC0084FDFCCFACC088E38093E7019BC063
:100860008091A2019091BB00E82FF0E0EE57FE4F7F
:1008700090838F5F8093A2019091A2018091A30148
:1008800082C08091A2019091BB00E82FF0E0EE576A
:10089000FE4F90838F5F8093A20180917C0188231B
:1008A00041F085ED8093BC008091BC0084FDFCCFBD
:1008B0007FC081E080937D0184EA6EC085ED8093E6
:1008C000BC008091BC0084FDFCCF72C083E08093AB
:1008D0007A011092E60159C08091E601803208F059
:1008E00056C08091E6019091BB00E82FF0E0EA53FA
:1008F000FE4F90838F5F8093E60147C08091E601B1
:10090000803230F4E091E601F0E0EA53FE4F1082CD
:1009100085ED8093BC008091BC0084FDFCCF1092DB
:100920007A016091E601E0918001F091810186EC0D
:1009300091E070E009951092E6012DC084E080936B
:100940007A011092C4011092C501E0917E01F091EC
:100950007F0109958091C501882329F481E0809366
:10096000C5011092A4019091C401E92FF0E0EC556B
:10097000FE4F80818093BB009F5F9093C401909154
:10098000C4018091C501981710F485EC01C085E879
:100990008093BC000FC085EC8093BC0009C010920E
:1009A000E70185ED8093BC008091BC0084FDFCCF05
:1009B00010927A01FF91EF91BF91AF919F918F912A
:1009C0007F916F915F914F913F912F910F900FBE4B
:1009D0000F901F90189510927A0181E080937C010E
:1009E00010927D0182E161E00E94D50983E161E01E
:1009F0000E94D509E9EBF0E080818E7F80838081C1
:100A00008D7F808388E48093B80085E48093BC0068
:100A1000089508951F920F920FB60F9211242F93ED
:100A20003F934F938F939F93EF93FF938091C000D9
:100A300082FD1DC04091C6002091280230912902FC
:100A40002F5F3F4F2F73307080912A0290912B02BD
:100A50002817390771F0E0912802F0912902E85136
:100A6000FE4F4083309329022093280202C08091D8
:100A7000C600FF91EF919F918F914F913F912F91E0
:100A80000F900FBE0F901F901895E0917C02F0918F
:100A90007D02E05CFF4F8191919120813181821B29
:100AA000930B8F739070892B11F00E9409050895A4
:100AB0001F920F920FB60F9211242F933F938F9393
:100AC0009F93EF93FF9320916C0230916D02809180
:100AD0006E0290916F022817390731F48091C1009E
:100AE0008F7D8093C10014C0E0916E02F0916F027F
:100AF000E45DFD4F208180916E0290916F0201961E
:100B00008F73907090936F0280936E022093C60053
:100B1000FF91EF919F918F913F912F910F900FBE79
:100B20000F901F901895AF92BF92DF92EF92FF92B5
:100B30000F931F93CF93DF93EC017A018B01DD2498
:100B4000403081EE580780E0680780E0780711F0B8
:100B5000DD24D39491E0A92EB12CEC89FD89DD2010
:100B600069F0C50108A002C0880F991F0A94E2F736
:100B7000808360E079E08DE390E005C0108260E85A
:100B800074E88EE190E0A80197010E94570A215075
:100B9000304040405040569547953795279580E125
:100BA0002030380720F0DD2011F0DD24D6CFE88991
:100BB000F9893083EA89FB89208319A2EE89FF89AC
:100BC000408121E030E0C9010C8C02C0880F991FE0
:100BD0000A94E2F7482B4083EE89FF894081C901DE
:100BE0000D8C02C0880F991F0A94E2F7482B4083AE
:100BF000EE89FF894081C9010E8C02C0880F991FC0
:100C00000A94E2F7482B4083EE89FF8980810F8C9C
:100C100002C0220F331F0A94E2F720952823208375
:100C2000DF91CF911F910F91FF90EF90DF90BF90D8
:100C3000AF900895DC011C96ED91FC911D97E05C4E
:100C4000FF4F2191319180819181281B390B2F73A6
:100C50003070C9010895DC011C96ED91FC911D973F
:100C6000E05CFF4F20813181E054F040DF01AE5B5A
:100C7000BF4F8D919C9111972817390719F42FEFC9
:100C80003FEF07C08D919C91E80FF91F8081282FBD
:100C900030E0C9010895DC011C96ED91FC911D978F
:100CA000E05CFF4F20813181E054F040DF01AE5B1A
:100CB000BF4F8D919C9111972817390719F42FEF89
:100CC0003FEF10C08D919C911197E80FF91F208183
:100CD0008D919C91119701968F73907011969C93B2
:100CE0008E9330E0C9010895DC0191968C91919723
:100CF000882339F05496ED91FC915597808186FFB9
:100D0000F9CF91961C920895CF93DF93EC01EE8575
:100D1000FF85E05CFF4F20813181E054F0402F5F80
:100D20003F4F2F733070DF01AE5BBF4F8D919C91B1
:100D3000119728173907D1F3E05CFF4F808191812B
:100D4000E054F040E80FF91F6083EE85FF85E05C1A
:100D5000FF4F31832083EE89FF89208181E090E07D
:100D60000F8C02C0880F991F0A94E2F7282B20836A
:100D700081E089A3EC89FD8980818064808381E0A2
:100D800090E0DF91CF910895109273021092720259
:100D900088EE93E0A0E0B0E0809374029093750237
:100DA000A0937602B093770284E191E09093710270
:100DB0008093700288EE91E090937D0280937C0294
:100DC0008CE292E090937F0280937E0285EC90E02B
:100DD000909381028093800284EC90E09093830250
:100DE0008093820280EC90E090938502809384024D
:100DF00081EC90E0909387028093860282EC90E0F1
:100E0000909389028093880286EC90E090938B0205
:100E100080938A0284E080938C0283E080938D0229
:100E200087E080938E0285E080938F0281E080933B
:100E300090020895CF93DF930E94CE080E94AC00E9
:100E4000C5E4D5E00E94E7012097E1F30E94450543
:100E5000F9CFCF92DF92EF92FF920F931F93CF9330
:100E6000DF937C016B018A01C0E0D0E00FC0D601A6
:100E70006D916D01D701ED91FC910190F081E02D14
:100E8000C7010995C80FD91F015010400115110560
:100E900071F7CE01DF91CF911F910F91FF90EF90ED
:100EA000DF90CF900895EF92FF920F931F938C01E4
:100EB000DC01ED91FC910190F081E02D6DE0099550
:100EC0007C01D801ED91FC910190F081E02DC801E9
:100ED0006AE009959C012E0D3F1DC9011F910F91DC
:100EE000FF90EF900895EF92FF920F931F937C0174
:100EF000DC01ED91FC910190F081E02D09958C01D0
:100F0000C7010E945307080F191FC8011F910F91B5
:100F1000FF90EF900895CF93DF93EC016115710579
:100F200019F420E030E00FC0DB010D900020E9F75C
:100F30001197A61BB70BE881F9810280F381E02DA0
:100F4000AD0109959C01C901DF91CF9108954F92A0
:100F50005F927F928F929F92AF92BF92CF92DF92D9
:100F6000EF92FF920F931F93DF93CF93CDB7DEB72E
:100F7000A1970FB6F894DEBF0FBECDBF2C01742E23
:100F8000CB01223008F42AE019A231E2C32ED12C81
:100F9000CC0EDD1E822E9924AA24BB24672D752F2A
:100FA000A50194010E94570A79018A01C801B7017D
:100FB000A50194010E94380A472D461B0894C108D8
:100FC000D1084A3014F4405D01C0495CF601408309
:100FD000E114F1040105110521F07E2C5F2DC801FB
:100FE000DDCFC201B6010E948B07A1960FB6F8941F
:100FF000DEBF0FBECDBFCF91DF911F910F91FF904C
:10100000EF90DF90CF90BF90AF909F908F907F90A8
:101010005F904F900895DC012115310541F4ED9169
:10102000FC910190F081E02D642F099508950E94B4
:10103000A7070895EF92FF920F931F939A01E62E50
:10104000FF2400E010E0B801A7010E940B081F91E7
:101050000F91FF90EF9008951F920F920FB60F928D
:1010600011242F933F938F939F93AF93BF938091BE
:10107000960290919702A0919802B09199023091B6
:101080009A020196A11DB11D232F2D5F2D3720F04F
:101090002D570196A11DB11D20939A0280939602AF
:1010A00090939702A0939802B09399028091920234
:1010B00090919302A0919402B09195020196A11D86
:1010C000B11D8093920290939302A0939402B093E7
:1010D0009502BF91AF919F918F913F912F910F906A
:1010E0000FBE0F901F9018958FB7F894209196021D
:1010F0003091970240919802509199028FBFB901A7
:10110000CA0108959FB7F8942091920230919302FA
:10111000409194025091950286B5A89B06C08F3FDE
:1011200021F02F5F3F4F4F4F5F4F9FBF542F432FF3
:10113000322F2227280F311D411D511D82E0220F21
:10114000331F441F551F8A95D1F7B901CA0108956D
:10115000EF92FF920F931F93CF93DF937B018C014C
:101160000E948208EB010EC00E9482086C1B7D0B5E
:10117000685E7340C8F30894E108F1080109110999
:10118000C851DC4FE114F1040105110569F7DF9145
:10119000CF911F910F91FF90EF900895789484B5AF
:1011A000826084BD84B5816084BD85B5826085BD63
:1011B00085B5816085BDEEE6F0E080818160808349
:1011C000E1E8F0E01082808182608083808181602C
:1011D0008083E0E8F0E0808181608083E1EBF0E0F3
:1011E000808184608083E0EBF0E080818160808397
:1011F000EAE7F0E080818460808380818260808380
:101200008081816080838081806880831092C100AA
:1012100008951F93CF93DF93182FEB0161E00E9495
:101220006909209709F44AC0CF3FD10509F449C0A4
:10123000E12FF0E0E255FF4F84918330C1F084301C
:1012400028F4813051F08230B1F50CC0863019F1AC
:10125000873049F1843079F514C084B5806884BD45
:10126000C7BD33C084B5806284BDC8BD2EC0809127
:101270008000806880938000D0938900C0938800AC
:1012800024C080918000806280938000D0938B0086
:10129000C0938A001AC08091B00080688093B0002B
:1012A000C093B30012C08091B00080628093B00000
:1012B000C093B4000AC0C038D1051CF4812F60E08F
:1012C00002C0812F61E00E94D509DF91CF911F916B
:1012D0000895CF93DF93482F50E0CA0186569F4F61
:1012E000FC0134914A575F4FFA018491882369F1D8
:1012F00090E0880F991FFC01E859FF4FA591B49128
:10130000FC01EE58FF4FC591D491662351F42FB7DD
:10131000F8948C91932F909589238C9388818923BD
:101320000BC0623061F42FB7F8948C91932F909595
:1013300089238C938881832B88832FBF06C09FB716
:10134000F8948C91832B8C939FBFDF91CF9108955C
:10135000833071F0843028F48130A1F0823021F59F
:1013600014C08630B1F08730D1F08430E9F404C085
:10137000809180008F7703C0809180008F7D809363
:101380008000089584B58F7702C084B58F7D84BDB9
:1013900008958091B0008F778093B0000895809178
:1013A000B0008F7D8093B0000895FF920F931F933C
:1013B000F62E482F50E0CA0182559F4FFC01249120
:1013C000CA0186569F4FFC0114914A575F4FFA019C
:1013D00004910023C9F0222319F0822F0E94A8094A
:1013E000E02FF0E0EE0FFF1FEE58FF4FA591B491F4
:1013F0009FB7F894FF2021F48C911095812302C0AF
:101400008C91812B8C939FBF1F910F91FF9008951A
:101410000F931F93482F50E0CA0182559F4FFC0144
:101420002491CA0186569F4FFC0104914A575F4F91
:10143000FA011491112319F420E030E015C02223A1
:1014400019F0822F0E94A809812F90E0880F991F20
:1014500084589F4FFC01A591B4918C9120E030E01D
:10146000802311F021E030E0C9011F910F91089510
:10147000629FD001739FF001829FE00DF11D649F78
:10148000E00DF11D929FF00D839FF00D749FF00D04
:10149000659FF00D9927729FB00DE11DF91F639FA5
:1014A000B00DE11DF91FBD01CF0111240895A1E286
:1014B0001A2EAA1BBB1BFD010DC0AA1FBB1FEE1FCE
:1014C000FF1FA217B307E407F50720F0A21BB30B19
:1014D000E40BF50B661F771F881F991F1A9469F795
:1014E00060957095809590959B01AC01BD01CF01F1
:1014F0000895EE0FFF1F0590F491E02D0994F894E4
:02150000FFCF1B
:1015020000000000E202B1022F0238024D025E0228
:1015120000000000840629071A064B062B067406F3
:00000001FF
